{
  "contractName": "SupplyChain",
  "abi": [
    {
      "inputs": [],
      "stateMutability": "payable",
      "type": "constructor",
      "payable": true
    },
    {
      "anonymous": false,
      "inputs": [
        {
          "indexed": true,
          "internalType": "address payable",
          "name": "account",
          "type": "address"
        }
      ],
      "name": "ConsumerAdded",
      "type": "event"
    },
    {
      "anonymous": false,
      "inputs": [
        {
          "indexed": true,
          "internalType": "address payable",
          "name": "account",
          "type": "address"
        }
      ],
      "name": "ConsumerRemoved",
      "type": "event"
    },
    {
      "anonymous": false,
      "inputs": [
        {
          "indexed": true,
          "internalType": "address",
          "name": "account",
          "type": "address"
        }
      ],
      "name": "DistributorAdded",
      "type": "event"
    },
    {
      "anonymous": false,
      "inputs": [
        {
          "indexed": true,
          "internalType": "address",
          "name": "account",
          "type": "address"
        }
      ],
      "name": "DistributorRemoved",
      "type": "event"
    },
    {
      "anonymous": false,
      "inputs": [
        {
          "indexed": true,
          "internalType": "address",
          "name": "account",
          "type": "address"
        }
      ],
      "name": "FarmerAdded",
      "type": "event"
    },
    {
      "anonymous": false,
      "inputs": [
        {
          "indexed": true,
          "internalType": "address",
          "name": "account",
          "type": "address"
        }
      ],
      "name": "FarmerRemoved",
      "type": "event"
    },
    {
      "anonymous": false,
      "inputs": [
        {
          "indexed": false,
          "internalType": "uint256",
          "name": "upc",
          "type": "uint256"
        }
      ],
      "name": "ForSale",
      "type": "event"
    },
    {
      "anonymous": false,
      "inputs": [
        {
          "indexed": false,
          "internalType": "uint256",
          "name": "upc",
          "type": "uint256"
        }
      ],
      "name": "Harvested",
      "type": "event"
    },
    {
      "anonymous": false,
      "inputs": [
        {
          "indexed": false,
          "internalType": "uint256",
          "name": "upc",
          "type": "uint256"
        }
      ],
      "name": "Packed",
      "type": "event"
    },
    {
      "anonymous": false,
      "inputs": [
        {
          "indexed": false,
          "internalType": "uint256",
          "name": "upc",
          "type": "uint256"
        }
      ],
      "name": "Processed",
      "type": "event"
    },
    {
      "anonymous": false,
      "inputs": [
        {
          "indexed": false,
          "internalType": "uint256",
          "name": "upc",
          "type": "uint256"
        }
      ],
      "name": "Purchased",
      "type": "event"
    },
    {
      "anonymous": false,
      "inputs": [
        {
          "indexed": false,
          "internalType": "uint256",
          "name": "upc",
          "type": "uint256"
        }
      ],
      "name": "Received",
      "type": "event"
    },
    {
      "anonymous": false,
      "inputs": [
        {
          "indexed": true,
          "internalType": "address",
          "name": "account",
          "type": "address"
        }
      ],
      "name": "RetailerAdded",
      "type": "event"
    },
    {
      "anonymous": false,
      "inputs": [
        {
          "indexed": true,
          "internalType": "address",
          "name": "account",
          "type": "address"
        }
      ],
      "name": "RetailerRemoved",
      "type": "event"
    },
    {
      "anonymous": false,
      "inputs": [
        {
          "indexed": false,
          "internalType": "uint256",
          "name": "upc",
          "type": "uint256"
        }
      ],
      "name": "Shipped",
      "type": "event"
    },
    {
      "anonymous": false,
      "inputs": [
        {
          "indexed": false,
          "internalType": "uint256",
          "name": "upc",
          "type": "uint256"
        }
      ],
      "name": "Sold",
      "type": "event"
    },
    {
      "anonymous": false,
      "inputs": [
        {
          "indexed": true,
          "internalType": "address",
          "name": "oldOwner",
          "type": "address"
        },
        {
          "indexed": true,
          "internalType": "address",
          "name": "newOwner",
          "type": "address"
        }
      ],
      "name": "TransferOwnership",
      "type": "event"
    },
    {
      "inputs": [
        {
          "internalType": "address payable",
          "name": "account",
          "type": "address"
        }
      ],
      "name": "addConsumer",
      "outputs": [],
      "stateMutability": "nonpayable",
      "type": "function"
    },
    {
      "inputs": [
        {
          "internalType": "address",
          "name": "account",
          "type": "address"
        }
      ],
      "name": "addDistributor",
      "outputs": [],
      "stateMutability": "nonpayable",
      "type": "function"
    },
    {
      "inputs": [
        {
          "internalType": "address",
          "name": "account",
          "type": "address"
        }
      ],
      "name": "addFarmer",
      "outputs": [],
      "stateMutability": "nonpayable",
      "type": "function"
    },
    {
      "inputs": [
        {
          "internalType": "address",
          "name": "account",
          "type": "address"
        }
      ],
      "name": "addRetailer",
      "outputs": [],
      "stateMutability": "nonpayable",
      "type": "function"
    },
    {
      "inputs": [
        {
          "internalType": "address payable",
          "name": "account",
          "type": "address"
        }
      ],
      "name": "isConsumer",
      "outputs": [
        {
          "internalType": "bool",
          "name": "",
          "type": "bool"
        }
      ],
      "stateMutability": "view",
      "type": "function",
      "constant": true
    },
    {
      "inputs": [
        {
          "internalType": "address",
          "name": "account",
          "type": "address"
        }
      ],
      "name": "isDistributor",
      "outputs": [
        {
          "internalType": "bool",
          "name": "",
          "type": "bool"
        }
      ],
      "stateMutability": "view",
      "type": "function",
      "constant": true
    },
    {
      "inputs": [
        {
          "internalType": "address",
          "name": "account",
          "type": "address"
        }
      ],
      "name": "isFarmer",
      "outputs": [
        {
          "internalType": "bool",
          "name": "",
          "type": "bool"
        }
      ],
      "stateMutability": "view",
      "type": "function",
      "constant": true
    },
    {
      "inputs": [],
      "name": "isOwner",
      "outputs": [
        {
          "internalType": "bool",
          "name": "",
          "type": "bool"
        }
      ],
      "stateMutability": "view",
      "type": "function",
      "constant": true
    },
    {
      "inputs": [
        {
          "internalType": "address",
          "name": "account",
          "type": "address"
        }
      ],
      "name": "isRetailer",
      "outputs": [
        {
          "internalType": "bool",
          "name": "",
          "type": "bool"
        }
      ],
      "stateMutability": "view",
      "type": "function",
      "constant": true
    },
    {
      "inputs": [],
      "name": "renounceConsumer",
      "outputs": [],
      "stateMutability": "nonpayable",
      "type": "function"
    },
    {
      "inputs": [],
      "name": "renounceDistributor",
      "outputs": [],
      "stateMutability": "nonpayable",
      "type": "function"
    },
    {
      "inputs": [],
      "name": "renounceFarmer",
      "outputs": [],
      "stateMutability": "nonpayable",
      "type": "function"
    },
    {
      "inputs": [],
      "name": "renounceOwnership",
      "outputs": [],
      "stateMutability": "nonpayable",
      "type": "function"
    },
    {
      "inputs": [],
      "name": "renounceRetailer",
      "outputs": [],
      "stateMutability": "nonpayable",
      "type": "function"
    },
    {
      "inputs": [
        {
          "internalType": "address",
          "name": "newOwner",
          "type": "address"
        }
      ],
      "name": "transferOwnership",
      "outputs": [],
      "stateMutability": "nonpayable",
      "type": "function"
    },
    {
      "inputs": [],
      "name": "kill",
      "outputs": [],
      "stateMutability": "nonpayable",
      "type": "function"
    },
    {
      "inputs": [
        {
          "internalType": "uint256",
          "name": "_upc",
          "type": "uint256"
        },
        {
          "internalType": "address payable",
          "name": "_originFarmerID",
          "type": "address"
        },
        {
          "internalType": "string",
          "name": "_originFarmName",
          "type": "string"
        },
        {
          "internalType": "string",
          "name": "_originFarmInformation",
          "type": "string"
        },
        {
          "internalType": "string",
          "name": "_originFarmLatitude",
          "type": "string"
        },
        {
          "internalType": "string",
          "name": "_originFarmLongitude",
          "type": "string"
        },
        {
          "internalType": "string",
          "name": "_productNotes",
          "type": "string"
        }
      ],
      "name": "harvestItem",
      "outputs": [],
      "stateMutability": "nonpayable",
      "type": "function"
    },
    {
      "inputs": [
        {
          "internalType": "uint256",
          "name": "_upc",
          "type": "uint256"
        }
      ],
      "name": "processItem",
      "outputs": [],
      "stateMutability": "nonpayable",
      "type": "function"
    },
    {
      "inputs": [
        {
          "internalType": "uint256",
          "name": "_upc",
          "type": "uint256"
        }
      ],
      "name": "packItem",
      "outputs": [],
      "stateMutability": "nonpayable",
      "type": "function"
    },
    {
      "inputs": [
        {
          "internalType": "uint256",
          "name": "_upc",
          "type": "uint256"
        },
        {
          "internalType": "uint256",
          "name": "_price",
          "type": "uint256"
        }
      ],
      "name": "sellItem",
      "outputs": [],
      "stateMutability": "nonpayable",
      "type": "function"
    },
    {
      "inputs": [
        {
          "internalType": "uint256",
          "name": "_upc",
          "type": "uint256"
        },
        {
          "internalType": "address payable",
          "name": "distributorID",
          "type": "address"
        }
      ],
      "name": "buyItem",
      "outputs": [],
      "stateMutability": "payable",
      "type": "function",
      "payable": true
    },
    {
      "inputs": [
        {
          "internalType": "uint256",
          "name": "_upc",
          "type": "uint256"
        }
      ],
      "name": "shipItem",
      "outputs": [],
      "stateMutability": "nonpayable",
      "type": "function"
    },
    {
      "inputs": [
        {
          "internalType": "uint256",
          "name": "_upc",
          "type": "uint256"
        },
        {
          "internalType": "address payable",
          "name": "retailerID",
          "type": "address"
        }
      ],
      "name": "receiveItem",
      "outputs": [],
      "stateMutability": "nonpayable",
      "type": "function"
    },
    {
      "inputs": [
        {
          "internalType": "uint256",
          "name": "_upc",
          "type": "uint256"
        },
        {
          "internalType": "address payable",
          "name": "consumerID",
          "type": "address"
        }
      ],
      "name": "purchaseItem",
      "outputs": [],
      "stateMutability": "nonpayable",
      "type": "function"
    },
    {
      "inputs": [
        {
          "internalType": "uint256",
          "name": "_upc",
          "type": "uint256"
        }
      ],
      "name": "fetchItemBufferOne",
      "outputs": [
        {
          "internalType": "uint256",
          "name": "itemSKU",
          "type": "uint256"
        },
        {
          "internalType": "uint256",
          "name": "itemUPC",
          "type": "uint256"
        },
        {
          "internalType": "address",
          "name": "ownerID",
          "type": "address"
        },
        {
          "internalType": "address",
          "name": "originFarmerID",
          "type": "address"
        },
        {
          "internalType": "string",
          "name": "originFarmName",
          "type": "string"
        },
        {
          "internalType": "string",
          "name": "originFarmInformation",
          "type": "string"
        },
        {
          "internalType": "string",
          "name": "originFarmLatitude",
          "type": "string"
        },
        {
          "internalType": "string",
          "name": "originFarmLongitude",
          "type": "string"
        }
      ],
      "stateMutability": "view",
      "type": "function",
      "constant": true
    },
    {
      "inputs": [
        {
          "internalType": "uint256",
          "name": "_upc",
          "type": "uint256"
        }
      ],
      "name": "fetchItemBufferTwo",
      "outputs": [
        {
          "internalType": "uint256",
          "name": "itemSKU",
          "type": "uint256"
        },
        {
          "internalType": "uint256",
          "name": "itemUPC",
          "type": "uint256"
        },
        {
          "internalType": "uint256",
          "name": "productID",
          "type": "uint256"
        },
        {
          "internalType": "string",
          "name": "productNotes",
          "type": "string"
        },
        {
          "internalType": "uint256",
          "name": "productPrice",
          "type": "uint256"
        },
        {
          "internalType": "uint256",
          "name": "itemState",
          "type": "uint256"
        },
        {
          "internalType": "address",
          "name": "distributorID",
          "type": "address"
        },
        {
          "internalType": "address",
          "name": "retailerID",
          "type": "address"
        },
        {
          "internalType": "address",
          "name": "consumerID",
          "type": "address"
        }
      ],
      "stateMutability": "view",
      "type": "function",
      "constant": true
    }
  ],
  "bytecode": "0x6080604052336000806101000a81548173ffffffffffffffffffffffffffffffffffffffff021916908373ffffffffffffffffffffffffffffffffffffffff1602179055506000809054906101000a900473ffffffffffffffffffffffffffffffffffffffff1673ffffffffffffffffffffffffffffffffffffffff16600073ffffffffffffffffffffffffffffffffffffffff167f5c486528ec3e3f0ea91181cff8116f02bfa350e03b8b6f12e00765adbb5af85c60405160405180910390a3620000d1336200015b60201b60201c565b620000e233620001bc60201b60201c565b620000f3336200021d60201b60201c565b62000104336200027e60201b60201c565b33600560006101000a81548173ffffffffffffffffffffffffffffffffffffffff021916908373ffffffffffffffffffffffffffffffffffffffff1602179055506001600781905550600160068190555062000563565b62000176816001620002df60201b62002f8d1790919060201c565b8073ffffffffffffffffffffffffffffffffffffffff167fddbf200aa634dc3fb81cfd68583dd1040d1c751d335e1d86b631bde3e977fea860405160405180910390a250565b620001d7816002620002df60201b62002f8d1790919060201c565b8073ffffffffffffffffffffffffffffffffffffffff167f28b26e7a3d20aedbc5f8f2ebf7da671c0491723a2b78f47a097b0e46dee0714260405160405180910390a250565b62000238816003620002df60201b62002f8d1790919060201c565b8073ffffffffffffffffffffffffffffffffffffffff167f71ae26cad02663e3d92efd6ec56031a80d74a20c0ab4183faa8bf262261c9baa60405160405180910390a250565b62000299816004620002df60201b62002f8d1790919060201c565b8073ffffffffffffffffffffffffffffffffffffffff167f2e0ded4123377a3c2bc9a26f1717655a129e2f20752924d42e730ec89c83dbd060405160405180910390a250565b600073ffffffffffffffffffffffffffffffffffffffff168173ffffffffffffffffffffffffffffffffffffffff16141562000383576040517f08c379a000000000000000000000000000000000000000000000000000000000815260040180806020018281038252600d8152602001807f61646d696e206163636f756e740000000000000000000000000000000000000081525060200191505060405180910390fd5b6200039582826200046760201b60201c565b1562000409576040517f08c379a00000000000000000000000000000000000000000000000000000000081526004018080602001828103825260188152602001807f526f6c6520697320616c72656164792061737369676e6564000000000000000081525060200191505060405180910390fd5b60018260000160008373ffffffffffffffffffffffffffffffffffffffff1673ffffffffffffffffffffffffffffffffffffffff16815260200190815260200160002060006101000a81548160ff0219169083151502179055505050565b60008073ffffffffffffffffffffffffffffffffffffffff168273ffffffffffffffffffffffffffffffffffffffff1614156200050c576040517f08c379a000000000000000000000000000000000000000000000000000000000815260040180806020018281038252600d8152602001807f61646d696e206163636f756e740000000000000000000000000000000000000081525060200191505060405180910390fd5b8260000160008373ffffffffffffffffffffffffffffffffffffffff1673ffffffffffffffffffffffffffffffffffffffff16815260200190815260200160002060009054906101000a900460ff16905092915050565b61338b80620005736000396000f3fe6080604052600436106101815760003560e01c806380c3f96d116100d1578063a80b20f21161008a578063db0e6a2f11610064578063db0e6a2f14610dbe578063f2fde38b14610dd5578063f30fc48014610e26578063f61c899a14610e6157610181565b8063a80b20f2146109ac578063b942906914610a07578063bdd8a6a814610a7057610181565b806380c3f96d146107f257806380fc0ce414610843578063834ff7391461085a5780638ec4f505146108c35780638f0c86fa146109145780638f32d59b1461097d57610181565b8063644241db1161013e5780637250e224116101185780637250e2241461048c5780637383d709146104dd57806377c459131461052b5780637bfe9efd1461079757610181565b8063644241db146102ee57806366225ff914610305578063715018a61461047557610181565b8063112940f9146101865780632d923561146101d757806341c0e1b51461021c57806349dae766146102335780635da09b881461026e57806361e6982d146102d7575b600080fd5b34801561019257600080fd5b506101d5600480360360208110156101a957600080fd5b81019080803573ffffffffffffffffffffffffffffffffffffffff169060200190929190505050610e9c565b005b3480156101e357600080fd5b5061021a600480360360408110156101fa57600080fd5b810190808035906020019092919080359060200190929190505050610f23565b005b34801561022857600080fd5b506102316110df565b005b34801561023f57600080fd5b5061026c6004803603602081101561025657600080fd5b8101908080359060200190929190505050611172565b005b34801561027a57600080fd5b506102bd6004803603602081101561029157600080fd5b81019080803573ffffffffffffffffffffffffffffffffffffffff169060200190929190505050611312565b604051808215151515815260200191505060405180910390f35b3480156102e357600080fd5b506102ec61132f565b005b3480156102fa57600080fd5b5061030361133a565b005b34801561031157600080fd5b5061033e6004803603602081101561032857600080fd5b8101908080359060200190929190505050611345565b604051808a8152602001898152602001888152602001806020018781526020018681526020018573ffffffffffffffffffffffffffffffffffffffff1673ffffffffffffffffffffffffffffffffffffffff1681526020018473ffffffffffffffffffffffffffffffffffffffff1673ffffffffffffffffffffffffffffffffffffffff1681526020018373ffffffffffffffffffffffffffffffffffffffff1673ffffffffffffffffffffffffffffffffffffffff168152602001828103825288818151815260200191508051906020019080838360005b83811015610432578082015181840152602081019050610417565b50505050905090810190601f16801561045f5780820380516001836020036101000a031916815260200191505b509a505050505050505050505060405180910390f35b34801561048157600080fd5b5061048a61156d565b005b34801561049857600080fd5b506104db600480360360208110156104af57600080fd5b81019080803573ffffffffffffffffffffffffffffffffffffffff1690602001909291905050506116a6565b005b610529600480360360408110156104f357600080fd5b8101908080359060200190929190803573ffffffffffffffffffffffffffffffffffffffff169060200190929190505050611710565b005b34801561053757600080fd5b506105646004803603602081101561054e57600080fd5b8101908080359060200190929190505050611a8e565b604051808981526020018881526020018773ffffffffffffffffffffffffffffffffffffffff1673ffffffffffffffffffffffffffffffffffffffff1681526020018673ffffffffffffffffffffffffffffffffffffffff1673ffffffffffffffffffffffffffffffffffffffff16815260200180602001806020018060200180602001858103855289818151815260200191508051906020019080838360005b83811015610620578082015181840152602081019050610605565b50505050905090810190601f16801561064d5780820380516001836020036101000a031916815260200191505b50858103845288818151815260200191508051906020019080838360005b8381101561068657808201518184015260208101905061066b565b50505050905090810190601f1680156106b35780820380516001836020036101000a031916815260200191505b50858103835287818151815260200191508051906020019080838360005b838110156106ec5780820151818401526020810190506106d1565b50505050905090810190601f1680156107195780820380516001836020036101000a031916815260200191505b50858103825286818151815260200191508051906020019080838360005b83811015610752578082015181840152602081019050610737565b50505050905090810190601f16801561077f5780820380516001836020036101000a031916815260200191505b509c5050505050505050505050505060405180910390f35b3480156107a357600080fd5b506107f0600480360360408110156107ba57600080fd5b8101908080359060200190929190803573ffffffffffffffffffffffffffffffffffffffff169060200190929190505050611e25565b005b3480156107fe57600080fd5b506108416004803603602081101561081557600080fd5b81019080803573ffffffffffffffffffffffffffffffffffffffff169060200190929190505050611fbd565b005b34801561084f57600080fd5b50610858612044565b005b34801561086657600080fd5b506108a96004803603602081101561087d57600080fd5b81019080803573ffffffffffffffffffffffffffffffffffffffff16906020019092919050505061204f565b604051808215151515815260200191505060405180910390f35b3480156108cf57600080fd5b50610912600480360360208110156108e657600080fd5b81019080803573ffffffffffffffffffffffffffffffffffffffff16906020019092919050505061206c565b005b34801561092057600080fd5b506109636004803603602081101561093757600080fd5b81019080803573ffffffffffffffffffffffffffffffffffffffff1690602001909291905050506120f3565b604051808215151515815260200191505060405180910390f35b34801561098957600080fd5b50610992612110565b604051808215151515815260200191505060405180910390f35b3480156109b857600080fd5b50610a05600480360360408110156109cf57600080fd5b8101908080359060200190929190803573ffffffffffffffffffffffffffffffffffffffff169060200190929190505050612167565b005b348015610a1357600080fd5b50610a5660048036036020811015610a2a57600080fd5b81019080803573ffffffffffffffffffffffffffffffffffffffff1690602001909291905050506123b2565b604051808215151515815260200191505060405180910390f35b348015610a7c57600080fd5b50610dbc600480360360e0811015610a9357600080fd5b8101908080359060200190929190803573ffffffffffffffffffffffffffffffffffffffff16906020019092919080359060200190640100000000811115610ada57600080fd5b820183602082011115610aec57600080fd5b80359060200191846001830284011164010000000083111715610b0e57600080fd5b91908080601f016020809104026020016040519081016040528093929190818152602001838380828437600081840152601f19601f82011690508083019250505050505050919291929080359060200190640100000000811115610b7157600080fd5b820183602082011115610b8357600080fd5b80359060200191846001830284011164010000000083111715610ba557600080fd5b91908080601f016020809104026020016040519081016040528093929190818152602001838380828437600081840152601f19601f82011690508083019250505050505050919291929080359060200190640100000000811115610c0857600080fd5b820183602082011115610c1a57600080fd5b80359060200191846001830284011164010000000083111715610c3c57600080fd5b91908080601f016020809104026020016040519081016040528093929190818152602001838380828437600081840152601f19601f82011690508083019250505050505050919291929080359060200190640100000000811115610c9f57600080fd5b820183602082011115610cb157600080fd5b80359060200191846001830284011164010000000083111715610cd357600080fd5b91908080601f016020809104026020016040519081016040528093929190818152602001838380828437600081840152601f19601f82011690508083019250505050505050919291929080359060200190640100000000811115610d3657600080fd5b820183602082011115610d4857600080fd5b80359060200191846001830284011164010000000083111715610d6a57600080fd5b91908080601f016020809104026020016040519081016040528093929190818152602001838380828437600081840152601f19601f8201169050808301925050505050505091929192905050506123cf565b005b348015610dca57600080fd5b50610dd36126ad565b005b348015610de157600080fd5b50610e2460048036036020811015610df857600080fd5b81019080803573ffffffffffffffffffffffffffffffffffffffff1690602001909291905050506126b8565b005b348015610e3257600080fd5b50610e5f60048036036020811015610e4957600080fd5b810190808035906020019092919050505061273e565b005b348015610e6d57600080fd5b50610e9a60048036036020811015610e8457600080fd5b81019080803590602001909291905050506128de565b005b610ea53361204f565b610f17576040517f08c379a000000000000000000000000000000000000000000000000000000000815260040180806020018281038252601f8152602001807f4f6e6c7920436f6e73756d657220697320616c6c6f776564206163636573730081525060200191505060405180910390fd5b610f2081612a61565b50565b60065460026007811115610f3357fe5b60086000838152602001908152602001600020600b0160009054906101000a900460ff166007811115610f6257fe5b14610fd5576040517f08c379a00000000000000000000000000000000000000000000000000000000081526004018080602001828103825260128152602001807f4974656d206973206e6f74207061636b6564000000000000000000000000000081525060200191505060405180910390fd5b610fde336123b2565b611050576040517f08c379a000000000000000000000000000000000000000000000000000000000815260040180806020018281038252601d8152602001807f4f6e6c79204661726d657220697320616c6c6f7765642061636365737300000081525060200191505060405180910390fd5b600360086000858152602001908152602001600020600b0160006101000a81548160ff0219169083600781111561108357fe5b02179055508160086000858152602001908152602001600020600a01819055507fa96ae0fc3224ebd79eebfe54bd130cc9cb94416cddd1f2386115e00b72532468836040518082815260200191505060405180910390a1505050565b600560009054906101000a900473ffffffffffffffffffffffffffffffffffffffff1673ffffffffffffffffffffffffffffffffffffffff163373ffffffffffffffffffffffffffffffffffffffff16141561117057600560009054906101000a900473ffffffffffffffffffffffffffffffffffffffff1673ffffffffffffffffffffffffffffffffffffffff16ff5b565b6006546000600781111561118257fe5b60086000838152602001908152602001600020600b0160009054906101000a900460ff1660078111156111b157fe5b14611224576040517f08c379a00000000000000000000000000000000000000000000000000000000081526004018080602001828103825260158152602001807f4974656d206973206e6f7420686172766573746564000000000000000000000081525060200191505060405180910390fd5b61122d336123b2565b61129f576040517f08c379a000000000000000000000000000000000000000000000000000000000815260040180806020018281038252601d8152602001807f4f6e6c79204661726d657220697320616c6c6f7765642061636365737300000081525060200191505060405180910390fd5b600160086000848152602001908152602001600020600b0160006101000a81548160ff021916908360078111156112d257fe5b02179055507f5afe3b1bf87069693c075da5c22a98d63d1aef98a30dbbe538d0781a98b77ee5826040518082815260200191505060405180910390a15050565b6000611328826003612abb90919063ffffffff16565b9050919050565b61133833612bb6565b565b61134333612c10565b565b600080600060606000806000806000600860008b8152602001908152602001600020600001549850600860008b8152602001908152602001600020600101549750600860008b8152602001908152602001600020600801549650600860008b81526020019081526020016000206009018054600181600116156101000203166002900480601f0160208091040260200160405190810160405280929190818152602001828054600181600116156101000203166002900480156114495780601f1061141e57610100808354040283529160200191611449565b820191906000526020600020905b81548152906001019060200180831161142c57829003601f168201915b50505050509550600860008b8152602001908152602001600020600a01549450600860008b8152602001908152602001600020600b0160009054906101000a900460ff16600781111561149857fe5b9350600860008b8152602001908152602001600020600b0160019054906101000a900473ffffffffffffffffffffffffffffffffffffffff169250600860008b8152602001908152602001600020600c0160009054906101000a900473ffffffffffffffffffffffffffffffffffffffff169150600860008b8152602001908152602001600020600d0160009054906101000a900473ffffffffffffffffffffffffffffffffffffffff1690508888888888888888889850985098509850985098509850985098509193959799909294969850565b611575612110565b6115e7576040517f08c379a00000000000000000000000000000000000000000000000000000000081526004018080602001828103825260198152602001807f4f6e6c7920746865206f776e657220697320616c6c6f7765640000000000000081525060200191505060405180910390fd5b600073ffffffffffffffffffffffffffffffffffffffff166000809054906101000a900473ffffffffffffffffffffffffffffffffffffffff1673ffffffffffffffffffffffffffffffffffffffff167f5c486528ec3e3f0ea91181cff8116f02bfa350e03b8b6f12e00765adbb5af85c60405160405180910390a360008060006101000a81548173ffffffffffffffffffffffffffffffffffffffff021916908373ffffffffffffffffffffffffffffffffffffffff160217905550565b6116af336120f3565b611704576040517f08c379a00000000000000000000000000000000000000000000000000000000081526004018080602001828103825260228152602001806133346022913960400191505060405180910390fd5b61170d81612c6a565b50565b6006546003600781111561172057fe5b60086000838152602001908152602001600020600b0160009054906101000a900460ff16600781111561174f57fe5b146117c2576040517f08c379a00000000000000000000000000000000000000000000000000000000081526004018080602001828103825260108152602001807f4974656d206973206e6f742073616c650000000000000000000000000000000081525060200191505060405180910390fd5b60086000848152602001908152602001600020600a01548034101561184f576040517f08c379a00000000000000000000000000000000000000000000000000000000081526004018080602001828103825260158152602001807f62616c616e6365206973206e6f7420656e6f756768000000000000000000000081525060200191505060405180910390fd5b83600460086000878152602001908152602001600020600b0160006101000a81548160ff0219169083600781111561188357fe5b0217905550836008600087815260200190815260200160002060020160006101000a81548173ffffffffffffffffffffffffffffffffffffffff021916908373ffffffffffffffffffffffffffffffffffffffff1602179055508360086000878152602001908152602001600020600b0160016101000a81548173ffffffffffffffffffffffffffffffffffffffff021916908373ffffffffffffffffffffffffffffffffffffffff1602179055506008600086815260200190815260200160002060030160009054906101000a900473ffffffffffffffffffffffffffffffffffffffff1673ffffffffffffffffffffffffffffffffffffffff166108fc349081150290604051600060405180830381858888f193505050501580156119ae573d6000803e3d6000fd5b507f92f64ca637d023f354075a4be751b169c1a8a9ccb6d33cdd0cb3520543995727856040518082815260200191505060405180910390a1600060086000838152602001908152602001600020600a015490506000813403905060086000848152602001908152602001600020600d0160009054906101000a900473ffffffffffffffffffffffffffffffffffffffff1673ffffffffffffffffffffffffffffffffffffffff166108fc829081150290604051600060405180830381858888f19350505050158015611a84573d6000803e3d6000fd5b5050505050505050565b600080600080606080606080600860008a8152602001908152602001600020600001549750600860008a8152602001908152602001600020600101549650600860008a815260200190815260200160002060020160009054906101000a900473ffffffffffffffffffffffffffffffffffffffff169550600860008a815260200190815260200160002060030160009054906101000a900473ffffffffffffffffffffffffffffffffffffffff169450600860008a81526020019081526020016000206004018054600181600116156101000203166002900480601f016020809104026020016040519081016040528092919081815260200182805460018160011615610100020316600290048015611be85780601f10611bbd57610100808354040283529160200191611be8565b820191906000526020600020905b815481529060010190602001808311611bcb57829003601f168201915b50505050509350600860008a81526020019081526020016000206005018054600181600116156101000203166002900480601f016020809104026020016040519081016040528092919081815260200182805460018160011615610100020316600290048015611c995780601f10611c6e57610100808354040283529160200191611c99565b820191906000526020600020905b815481529060010190602001808311611c7c57829003601f168201915b50505050509250600860008a81526020019081526020016000206006018054600181600116156101000203166002900480601f016020809104026020016040519081016040528092919081815260200182805460018160011615610100020316600290048015611d4a5780601f10611d1f57610100808354040283529160200191611d4a565b820191906000526020600020905b815481529060010190602001808311611d2d57829003601f168201915b50505050509150600860008a81526020019081526020016000206007018054600181600116156101000203166002900480601f016020809104026020016040519081016040528092919081815260200182805460018160011615610100020316600290048015611dfb5780601f10611dd057610100808354040283529160200191611dfb565b820191906000526020600020905b815481529060010190602001808311611dde57829003601f168201915b50505050509050878787878787878797509750975097509750975097509750919395975091939597565b611e2e3361204f565b611ea0576040517f08c379a000000000000000000000000000000000000000000000000000000000815260040180806020018281038252601f8152602001807f4f6e6c7920436f6e73756d657220697320616c6c6f776564206163636573730081525060200191505060405180910390fd5b600760086000848152602001908152602001600020600b0160006101000a81548160ff02191690836007811115611ed357fe5b02179055508060086000848152602001908152602001600020600d0160006101000a81548173ffffffffffffffffffffffffffffffffffffffff021916908373ffffffffffffffffffffffffffffffffffffffff160217905550806008600084815260200190815260200160002060020160006101000a81548173ffffffffffffffffffffffffffffffffffffffff021916908373ffffffffffffffffffffffffffffffffffffffff1602179055507f653d56639fee6b566a5c804764e9689de38645f0b733df89a36a1b7b42173dd8826040518082815260200191505060405180910390a15050565b611fc6336123b2565b612038576040517f08c379a000000000000000000000000000000000000000000000000000000000815260040180806020018281038252601d8152602001807f4f6e6c79204661726d657220697320616c6c6f7765642061636365737300000081525060200191505060405180910390fd5b61204181612cc4565b50565b61204d33612d1e565b565b6000612065826002612abb90919063ffffffff16565b9050919050565b61207533611312565b6120e7576040517f08c379a000000000000000000000000000000000000000000000000000000000815260040180806020018281038252601c8152602001807f412052657461696c657220697320616c6c6f776564206163636573730000000081525060200191505060405180910390fd5b6120f081612d78565b50565b6000612109826001612abb90919063ffffffff16565b9050919050565b60008060009054906101000a900473ffffffffffffffffffffffffffffffffffffffff1673ffffffffffffffffffffffffffffffffffffffff163373ffffffffffffffffffffffffffffffffffffffff1614905090565b6006546005600781111561217757fe5b60086000838152602001908152602001600020600b0160009054906101000a900460ff1660078111156121a657fe5b14612219576040517f08c379a00000000000000000000000000000000000000000000000000000000081526004018080602001828103825260138152602001807f4974656d206973206e6f7420736869707065640000000000000000000000000081525060200191505060405180910390fd5b61222233611312565b612294576040517f08c379a000000000000000000000000000000000000000000000000000000000815260040180806020018281038252601c8152602001807f412052657461696c657220697320616c6c6f776564206163636573730000000081525060200191505060405180910390fd5b600660086000858152602001908152602001600020600b0160006101000a81548160ff021916908360078111156122c757fe5b0217905550816008600085815260200190815260200160002060020160006101000a81548173ffffffffffffffffffffffffffffffffffffffff021916908373ffffffffffffffffffffffffffffffffffffffff1602179055508160086000858152602001908152602001600020600c0160006101000a81548173ffffffffffffffffffffffffffffffffffffffff021916908373ffffffffffffffffffffffffffffffffffffffff1602179055507fa8142743f8f70a4c26f3691cf4ed59718381fb2f18070ec52be1f1022d855557836040518082815260200191505060405180910390a1505050565b60006123c8826004612abb90919063ffffffff16565b9050919050565b6123d8336123b2565b61244a576040517f08c379a000000000000000000000000000000000000000000000000000000000815260040180806020018281038252601d8152602001807f4f6e6c79204661726d657220697320616c6c6f7765642061636365737300000081525060200191505060405180910390fd5b6007546008600089815260200190815260200160002060000181905550866008600089815260200190815260200160002060010181905550856008600089815260200190815260200160002060020160006101000a81548173ffffffffffffffffffffffffffffffffffffffff021916908373ffffffffffffffffffffffffffffffffffffffff160217905550856008600089815260200190815260200160002060030160006101000a81548173ffffffffffffffffffffffffffffffffffffffff021916908373ffffffffffffffffffffffffffffffffffffffff1602179055508460086000898152602001908152602001600020600401908051906020019061255692919061326b565b508360086000898152602001908152602001600020600501908051906020019061258192919061326b565b50826008600089815260200190815260200160002060060190805190602001906125ac92919061326b565b50816008600089815260200190815260200160002060070190805190602001906125d792919061326b565b50600754870160086000898152602001908152602001600020600801819055508060086000898152602001908152602001600020600901908051906020019061262192919061326b565b50600060086000898152602001908152602001600020600b0160006101000a81548160ff0219169083600781111561265557fe5b0217905550600160075401600781905550866006819055507f8e55ccfc9778ff8eba1646d765cf1982537ce0f9257054a17b48aad745250183876040518082815260200191505060405180910390a150505050505050565b6126b633612dd2565b565b6126c0612110565b612732576040517f08c379a00000000000000000000000000000000000000000000000000000000081526004018080602001828103825260198152602001807f4f6e6c7920746865206f776e657220697320616c6c6f7765640000000000000081525060200191505060405180910390fd5b61273b81612e2c565b50565b6006546001600781111561274e57fe5b60086000838152602001908152602001600020600b0160009054906101000a900460ff16600781111561277d57fe5b146127f0576040517f08c379a00000000000000000000000000000000000000000000000000000000081526004018080602001828103825260158152602001807f4974656d206973206e6f742070726f636573736564000000000000000000000081525060200191505060405180910390fd5b6127f9336123b2565b61286b576040517f08c379a000000000000000000000000000000000000000000000000000000000815260040180806020018281038252601d8152602001807f4f6e6c79204661726d657220697320616c6c6f7765642061636365737300000081525060200191505060405180910390fd5b600260086000848152602001908152602001600020600b0160006101000a81548160ff0219169083600781111561289e57fe5b02179055507f9b3b66e2380b690bae22c73ef1428fb0c91e72fe14a4b6defa13035214187aff826040518082815260200191505060405180910390a15050565b600654600460078111156128ee57fe5b60086000838152602001908152602001600020600b0160009054906101000a900460ff16600781111561291d57fe5b14612990576040517f08c379a00000000000000000000000000000000000000000000000000000000081526004018080602001828103825260108152602001807f4974656d206973206e6f7420736f6c640000000000000000000000000000000081525060200191505060405180910390fd5b612999336120f3565b6129ee576040517f08c379a00000000000000000000000000000000000000000000000000000000081526004018080602001828103825260228152602001806133346022913960400191505060405180910390fd5b600560086000848152602001908152602001600020600b0160006101000a81548160ff02191690836007811115612a2157fe5b02179055507ff00b9a5725b80c54016f42114f6ed7792d22eecb116011c4afac29c57bef6c95826040518082815260200191505060405180910390a15050565b612a75816002612f8d90919063ffffffff16565b8073ffffffffffffffffffffffffffffffffffffffff167f28b26e7a3d20aedbc5f8f2ebf7da671c0491723a2b78f47a097b0e46dee0714260405160405180910390a250565b60008073ffffffffffffffffffffffffffffffffffffffff168273ffffffffffffffffffffffffffffffffffffffff161415612b5f576040517f08c379a000000000000000000000000000000000000000000000000000000000815260040180806020018281038252600d8152602001807f61646d696e206163636f756e740000000000000000000000000000000000000081525060200191505060405180910390fd5b8260000160008373ffffffffffffffffffffffffffffffffffffffff1673ffffffffffffffffffffffffffffffffffffffff16815260200190815260200160002060009054906101000a900460ff16905092915050565b612bca81600261310b90919063ffffffff16565b8073ffffffffffffffffffffffffffffffffffffffff167fe3f5ed5f263f1f01764a96edfc7d025f511ec5f7d180e8816908b78bcf74f09860405160405180910390a250565b612c2481600161310b90919063ffffffff16565b8073ffffffffffffffffffffffffffffffffffffffff167f126174f6cf49c81cdb4a9214c6b8f037bef55b4ec31e4fc776cea2a1c8a88d5960405160405180910390a250565b612c7e816001612f8d90919063ffffffff16565b8073ffffffffffffffffffffffffffffffffffffffff167fddbf200aa634dc3fb81cfd68583dd1040d1c751d335e1d86b631bde3e977fea860405160405180910390a250565b612cd8816004612f8d90919063ffffffff16565b8073ffffffffffffffffffffffffffffffffffffffff167f2e0ded4123377a3c2bc9a26f1717655a129e2f20752924d42e730ec89c83dbd060405160405180910390a250565b612d3281600461310b90919063ffffffff16565b8073ffffffffffffffffffffffffffffffffffffffff167fa5e0f060af304ab17dd418c7927e3da3ae7868189bf387aee09ab179ccc572f260405160405180910390a250565b612d8c816003612f8d90919063ffffffff16565b8073ffffffffffffffffffffffffffffffffffffffff167f71ae26cad02663e3d92efd6ec56031a80d74a20c0ab4183faa8bf262261c9baa60405160405180910390a250565b612de681600361310b90919063ffffffff16565b8073ffffffffffffffffffffffffffffffffffffffff167fdb7176e79cffef81cb01767dd0447a0b24bb72ca9778d4b245581086b2a7e6db60405160405180910390a250565b600073ffffffffffffffffffffffffffffffffffffffff168173ffffffffffffffffffffffffffffffffffffffff161415612ecf576040517f08c379a00000000000000000000000000000000000000000000000000000000081526004018080602001828103825260198152602001807f63616e6e6f74207472616e73666572206f776e6572736869700000000000000081525060200191505060405180910390fd5b8073ffffffffffffffffffffffffffffffffffffffff166000809054906101000a900473ffffffffffffffffffffffffffffffffffffffff1673ffffffffffffffffffffffffffffffffffffffff167f5c486528ec3e3f0ea91181cff8116f02bfa350e03b8b6f12e00765adbb5af85c60405160405180910390a3806000806101000a81548173ffffffffffffffffffffffffffffffffffffffff021916908373ffffffffffffffffffffffffffffffffffffffff16021790555050565b600073ffffffffffffffffffffffffffffffffffffffff168173ffffffffffffffffffffffffffffffffffffffff161415613030576040517f08c379a000000000000000000000000000000000000000000000000000000000815260040180806020018281038252600d8152602001807f61646d696e206163636f756e740000000000000000000000000000000000000081525060200191505060405180910390fd5b61303a8282612abb565b156130ad576040517f08c379a00000000000000000000000000000000000000000000000000000000081526004018080602001828103825260188152602001807f526f6c6520697320616c72656164792061737369676e6564000000000000000081525060200191505060405180910390fd5b60018260000160008373ffffffffffffffffffffffffffffffffffffffff1673ffffffffffffffffffffffffffffffffffffffff16815260200190815260200160002060006101000a81548160ff0219169083151502179055505050565b600073ffffffffffffffffffffffffffffffffffffffff168173ffffffffffffffffffffffffffffffffffffffff1614156131ae576040517f08c379a000000000000000000000000000000000000000000000000000000000815260040180806020018281038252600d8152602001807f61646d696e206163636f756e740000000000000000000000000000000000000081525060200191505060405180910390fd5b6131b88282612abb565b61320d576040517f08c379a00000000000000000000000000000000000000000000000000000000081526004018080602001828103825260238152602001806133116023913960400191505060405180910390fd5b60008260000160008373ffffffffffffffffffffffffffffffffffffffff1673ffffffffffffffffffffffffffffffffffffffff16815260200190815260200160002060006101000a81548160ff0219169083151502179055505050565b828054600181600116156101000203166002900490600052602060002090601f016020900481019282601f106132ac57805160ff19168380011785556132da565b828001600101855582156132da579182015b828111156132d95782518255916020019190600101906132be565b5b5090506132e791906132eb565b5090565b61330d91905b808211156133095760008160009055506001016132f1565b5090565b9056fe526f6c65206973206e6f74206173736f6369617465642077697468206163636f756e744f6e6c79204469737472696275746f7220697320616c6c6f77656420616363657373a2646970667358221220f1a41938a054f664fbe6e9c2c92160ca9e71a178d5b9fe8ae49804b46c1a20d264736f6c63430006020033",
  "source": "pragma solidity ^0.6.2;\r\n\r\nimport '../coffeecore/Ownable.sol';\r\nimport '../coffeeaccesscontrol/DistributorRole.sol';\r\nimport '../coffeeaccesscontrol/ConsumerRole.sol';\r\nimport '../coffeeaccesscontrol/RetailerRole.sol';\r\nimport '../coffeeaccesscontrol/FarmerRole.sol';\r\n\r\n// Define a contract 'Supplychain'\r\ncontract SupplyChain is Ownable, DistributorRole, ConsumerRole, RetailerRole, FarmerRole {\r\n\r\n  // Define 'owner'\r\n  address payable owner;\r\n\r\n  // Define a variable called 'upc' for Universal Product Code (UPC)\r\n  uint  upc;\r\n\r\n  // Define a variable called 'sku' for Stock Keeping Unit (SKU)\r\n  uint  sku;\r\n\r\n  // Define a public mapping 'items' that maps the UPC to an Item.\r\n  mapping (uint => Item) items;\r\n\r\n  // Define a public mapping 'itemsHistory' that maps the UPC to an array of TxHash, \r\n  // that track its journey through the supply chain -- to be sent from DApp.\r\n  mapping (uint => string[]) itemsHistory;\r\n  \r\n  // Define enum 'State' with the following values:\r\n  enum State \r\n  { \r\n    Harvested,  // 0\r\n    Processed,  // 1\r\n    Packed,     // 2\r\n    ForSale,    // 3\r\n    Sold,       // 4\r\n    Shipped,    // 5\r\n    Received,   // 6\r\n    Purchased   // 7\r\n    }\r\n\r\n  State constant defaultState = State.Harvested;\r\n\r\n  // Define a struct 'Item' with the following fields:\r\n  struct Item {\r\n    uint    sku;  // Stock Keeping Unit (SKU)\r\n    uint    upc; // Universal Product Code (UPC), generated by the Farmer, goes on the package, can be verified by the Consumer\r\n    address payable ownerID;  // Metamask-Ethereum address of the current owner as the product moves through 8 stages\r\n    address payable originFarmerID; // Metamask-Ethereum address of the Farmer\r\n    string originFarmName; // Farmer Name\r\n    string originFarmInformation;  // Farmer Information\r\n    string originFarmLatitude; // Farm Latitude\r\n    string originFarmLongitude;  // Farm Longitude\r\n    uint    productID;  // Product ID potentially a combination of upc + sku\r\n    string productNotes; // Product Notes\r\n    uint    productPrice; // Product Price\r\n    State   itemState;  // Product State as represented in the enum above\r\n    address payable distributorID;  // Metamask-Ethereum address of the Distributor\r\n    address payable retailerID; // Metamask-Ethereum address of the Retailer\r\n    address payable consumerID; // Metamask-Ethereum address of the Consumer\r\n  }\r\n\r\n  // Define 8 events with the same 8 state values and accept 'upc' as input argument\r\n  event Harvested(uint upc);\r\n  event Processed(uint upc);\r\n  event Packed(uint upc);\r\n  event ForSale(uint upc);\r\n  event Sold(uint upc);\r\n  event Shipped(uint upc);\r\n  event Received(uint upc);\r\n  event Purchased(uint upc);\r\n\r\n  // Define a modifer that verifies the Caller\r\n  modifier verifyCaller (address _address) {\r\n    require(msg.sender == _address,\"Address is inconsistent\"); \r\n    _;\r\n  }\r\n\r\n  // Define a modifier that checks if the paid amount is sufficient to cover the price\r\n  modifier paidEnough(uint _price) { \r\n    require(msg.value >= _price,\"balance is not enough\"); \r\n    _;\r\n  }\r\n  \r\n  // Define a modifier that checks the price and refunds the remaining balance\r\n  modifier checkValue(uint _upc) {\r\n    _;\r\n    uint _price = items[_upc].productPrice;\r\n    uint amountToReturn = msg.value - _price;\r\n    items[_upc].consumerID.transfer(amountToReturn);\r\n  }\r\n\r\n  // Define a modifier that checks if an item.state of a upc is Harvested\r\n  modifier harvested(uint _upc) {\r\n    require(items[_upc].itemState == State.Harvested,\"Item is not harvested\");\r\n    _;\r\n  }\r\n\r\n  // Define a modifier that checks if an item.state of a upc is Processed\r\n  modifier processed(uint _upc) {\r\n    require(items[_upc].itemState == State.Processed,\"Item is not processed\");\r\n    _;\r\n  }\r\n  \r\n  // Define a modifier that checks if an item.state of a upc is Packed\r\n  modifier packed(uint _upc) {\r\n    require(items[_upc].itemState == State.Packed,\"Item is not packed\");\r\n    _;\r\n  }\r\n\r\n  // Define a modifier that checks if an item.state of a upc is ForSale\r\n  modifier forSale(uint _upc) {\r\n    require(items[_upc].itemState == State.ForSale,\"Item is not sale\");\r\n    _;\r\n  }\r\n\r\n  // Define a modifier that checks if an item.state of a upc is Sold\r\n  modifier sold(uint _upc) {\r\n    require(items[_upc].itemState == State.Sold,\"Item is not sold\");\r\n    _;\r\n  }\r\n  \r\n  // Define a modifier that checks if an item.state of a upc is Shipped\r\n  modifier shipped(uint _upc) {\r\n    require(items[_upc].itemState == State.Shipped,\"Item is not shipped\");\r\n    _;\r\n  }\r\n\r\n  // Define a modifier that checks if an item.state of a upc is Received\r\n  modifier received(uint _upc) {\r\n    require(items[_upc].itemState == State.Received,\"Item is not received\");\r\n    _;\r\n  }\r\n\r\n  // Define a modifier that checks if an item.state of a upc is Purchased\r\n  modifier purchased(uint _upc) {\r\n    require(items[_upc].itemState == State.Purchased,\"Item is not purchased\");\r\n    _;\r\n  }\r\n\r\n  // In the constructor set 'owner' to the address that instantiated the contract\r\n  // and set 'sku' to 1\r\n  // and set 'upc' to 1\r\n  constructor() public payable {\r\n    owner = msg.sender;\r\n    sku = 1;\r\n    upc = 1;\r\n  }\r\n\r\n  // Define a function 'kill' if required\r\n  function kill() public {\r\n    if (msg.sender == owner) {\r\n      selfdestruct(owner);\r\n    }\r\n  }\r\n\r\n  // Define a function 'harvestItem' that allows a farmer to mark an item 'Harvested'\r\n  function harvestItem(uint _upc, address payable _originFarmerID, string memory  _originFarmName, string memory  _originFarmInformation, string memory   _originFarmLatitude, \r\n  string memory   _originFarmLongitude, string memory   _productNotes) onlyFarmer public \r\n  {\r\n    // Add the new item as part of Harvest\r\n    items[_upc].sku = sku;\r\n    items[_upc].upc = _upc;\r\n    items[_upc].ownerID = _originFarmerID; \r\n    items[_upc].originFarmerID = _originFarmerID;\r\n    items[_upc].originFarmName = _originFarmName;\r\n    items[_upc].originFarmInformation = _originFarmInformation;\r\n    items[_upc].originFarmLatitude = _originFarmLatitude;\r\n    items[_upc].originFarmLongitude = _originFarmLongitude;\r\n    items[_upc].productID = _upc + sku;\r\n    items[_upc].productNotes = _productNotes;\r\n    items[_upc].itemState = State.Harvested;\r\n\r\n    // Increment sku\r\n    sku = sku + 1;\r\n    upc = _upc;\r\n    // Emit the appropriate event\r\n    emit Harvested(_upc);\r\n  }\r\n\r\n  // Define a function 'processtItem' that allows a farmer to mark an item 'Processed'\r\n  function processItem(uint _upc) harvested(upc) onlyFarmer public \r\n  // Call modifier to check if upc has passed previous supply chain stage\r\n  \r\n  // Call modifier to verify caller of this function\r\n  \r\n  {\r\n    // Update the appropriate fields\r\n    items[_upc].itemState = State.Processed;\r\n\r\n    emit Processed(_upc);\r\n    // Emit the appropriate event\r\n    \r\n  }\r\n\r\n  // Define a function 'packItem' that allows a farmer to mark an item 'Packed'\r\n  function packItem(uint _upc) processed(upc) onlyFarmer public \r\n  // Call modifier to check if upc has passed previous supply chain stage\r\n  \r\n  // Call modifier to verify caller of this function\r\n  \r\n  {\r\n    // Update the appropriate fields\r\n    // Update the appropriate fields\r\n    items[_upc].itemState = State.Packed;\r\n\r\n    emit Packed(_upc);\r\n    \r\n    // Emit the appropriate event\r\n    \r\n  }\r\n\r\n  // Define a function 'sellItem' that allows a farmer to mark an item 'ForSale'\r\n  function sellItem(uint _upc, uint _price) packed(upc) onlyFarmer public \r\n  // Call modifier to check if upc has passed previous supply chain stage\r\n  \r\n  // Call modifier to verify caller of this function\r\n  \r\n  {\r\n    // Update the appropriate fields\r\n    \r\n    // Emit the appropriate event\r\n    items[_upc].itemState = State.ForSale;\r\n    items[_upc].productPrice = _price;\r\n\r\n    emit ForSale(_upc);\r\n    \r\n  }\r\n\r\n  // Define a function 'buyItem' that allows the disributor to mark an item 'Sold'\r\n  // Use the above defined modifiers to check if the item is available for sale, if the buyer has paid enough, \r\n  // and any excess ether sent is refunded back to the buyer\r\n  function buyItem(uint _upc, address payable distributorID) forSale(upc) paidEnough(items[_upc].productPrice) checkValue(_upc) public payable \r\n    // Call modifier to check if upc has passed previous supply chain stage\r\n    \r\n    // Call modifer to check if buyer has paid enough\r\n    \r\n    // Call modifer to send any excess ether back to buyer\r\n    \r\n    {\r\n    \r\n    // Update the appropriate fields - ownerID, distributorID, itemState\r\n    \r\n    // Transfer money to farmer\r\n    \r\n    // emit the appropriate event\r\n    items[_upc].itemState = State.Sold;\r\n    items[_upc].ownerID = distributorID;\r\n    items[_upc].distributorID = distributorID;\r\n    items[_upc].originFarmerID.transfer(msg.value);\r\n\r\n    emit Sold(_upc);\r\n  }\r\n\r\n  // Define a function 'shipItem' that allows the distributor to mark an item 'Shipped'\r\n  // Use the above modifers to check if the item is sold\r\n  function shipItem(uint _upc) sold(upc) onlyDistributor public \r\n    // Call modifier to check if upc has passed previous supply chain stage\r\n    \r\n    // Call modifier to verify caller of this function\r\n    \r\n    {\r\n    // Update the appropriate fields\r\n    items[_upc].itemState = State.Shipped;\r\n    \r\n    emit Shipped(_upc);\r\n    // Emit the appropriate event\r\n    \r\n  }\r\n\r\n  // Define a function 'receiveItem' that allows the retailer to mark an item 'Received'\r\n  // Use the above modifiers to check if the item is shipped\r\n  function receiveItem(uint _upc, address payable retailerID) shipped(upc) onlyRetailer public \r\n    // Call modifier to check if upc has passed previous supply chain stage\r\n    \r\n    // Access Control List enforced by calling Smart Contract / DApp\r\n    {\r\n    // Update the appropriate fields - ownerID, retailerID, itemState\r\n    items[_upc].itemState = State.Received;\r\n    items[_upc].ownerID = retailerID;\r\n    items[_upc].retailerID = retailerID;\r\n    \r\n    // Emit the appropriate event\r\n    emit Received(_upc);\r\n  }\r\n\r\n  // Define a function 'purchaseItem' that allows the consumer to mark an item 'Purchased'\r\n  // Use the above modifiers to check if the item is received\r\n  function purchaseItem(uint _upc, address payable consumerID) onlyConsumer public \r\n    // Call modifier to check if upc has passed previous supply chain stage\r\n    \r\n    // Access Control List enforced by calling Smart Contract / DApp\r\n    {\r\n    // Update the appropriate fields - ownerID, consumerID, itemState\r\n     items[_upc].itemState = State.Purchased;\r\n     items[_upc].consumerID = consumerID;\r\n     items[_upc].ownerID = consumerID;\r\n    // Emit the appropriate event\r\n    emit Purchased(_upc);\r\n    \r\n  }\r\n\r\n\r\n  // Define a function 'fetchItemBufferOne' that fetches the data\r\n  function fetchItemBufferOne(uint _upc) public view returns \r\n  (\r\n  uint    itemSKU,\r\n  uint    itemUPC,\r\n  address ownerID,\r\n  address originFarmerID,\r\n  string memory  originFarmName,\r\n  string memory   originFarmInformation,\r\n  string memory   originFarmLatitude,\r\n  string memory   originFarmLongitude\r\n  ) \r\n  {\r\n  // Assign values to the 8 parameters\r\n    itemSKU = items[_upc].sku;\r\n  itemUPC = items[_upc].upc;\r\n  ownerID = items[_upc].ownerID;\r\n  originFarmerID = items[_upc].originFarmerID;\r\n  originFarmName = items[_upc].originFarmName;\r\n  originFarmInformation = items[_upc].originFarmInformation;\r\n  originFarmLatitude = items[_upc].originFarmLatitude;\r\n  originFarmLongitude = items[_upc].originFarmLongitude;\r\n\r\n\r\n  return \r\n  (\r\n     itemSKU,\r\n     itemUPC,\r\n     ownerID,\r\n     originFarmerID,\r\n     originFarmName,\r\n     originFarmInformation,\r\n     originFarmLatitude,\r\n     originFarmLongitude\r\n  );\r\n  }\r\n\r\n \r\n  // Define a function 'fetchItemBufferTwo' that fetches the data\r\n  function fetchItemBufferTwo(uint _upc) public view returns \r\n  (\r\n  uint    itemSKU,\r\n  uint    itemUPC,\r\n  uint    productID,\r\n  string memory   productNotes,\r\n  uint    productPrice,\r\n  uint    itemState,\r\n  address distributorID,\r\n  address retailerID,\r\n  address consumerID\r\n  ) \r\n  {\r\n    // Assign values to the 9 parameters\r\n  itemSKU = items[_upc].sku;\r\n  itemUPC = items[_upc].upc;\r\n  productID = items[_upc].productID;\r\n  productNotes = items[_upc].productNotes;\r\n  productPrice = items[_upc].productPrice;\r\n  itemState = uint(items[_upc].itemState);\r\n  distributorID = items[_upc].distributorID;\r\n  retailerID = items[_upc].retailerID;\r\n  consumerID = items[_upc].consumerID;\r\n    \r\n  return \r\n  (\r\n    itemSKU,\r\n    itemUPC,\r\n    productID,\r\n    productNotes,\r\n    productPrice,\r\n    itemState,\r\n    distributorID,\r\n    retailerID,\r\n    consumerID\r\n  );\r\n  }\r\n}\r\n",
  "sourcePath": "C:/Users/jb7741/Downloads/udacity/supplychainproject/supplychainproject/files/project-6/contracts/coffeebase/SupplyChain.sol",
  "compiler": {
    "name": "solc",
    "version": "0.6.2+commit.bacdbe57.Emscripten.clang"
  },
  "schemaVersion": "3.2.3",
  "updatedAt": "2020-08-19T16:21:44.325Z",
  "networkType": "ethereum",
  "devdoc": {
    "methods": {}
  },
  "userdoc": {
    "methods": {
      "isOwner()": {
        "notice": "Check if the calling address is the owner of the contract"
      },
      "renounceOwnership()": {
        "notice": "Define a function to renounce ownerhip"
      },
      "transferOwnership(address)": {
        "notice": "Define a public function to transfer ownership"
      }
    }
  }
}